:100000000C941A010C9442010C9442010C9442018C
:100010000C9442010C9442010C9442010C94420154
:100020000C9442010C9442010C94100B0C944F0D53
:100030000C9442010C9442010C9442010C94420134
:100040000C9442010C9442010C9442010C94420124
:100050000C9442010C9442010C9442010C9407034D
:100060000C9442010C94B20F0C948C0F0C9442012E
:100070000C9442010C9442010C9442010C944201F4
:100080000C9442010C9442010C9442010C944201E4
:100090000C9442010C9442010C9442010C944201D4
:1000A0000C9442010C9442010C944201C71C3E1D69
:1000B000081DF01C611D611DC11C611DC11C611D5D
:1000C000C11CC11CC11C611DC11CC11C2A102D10EA
:1000D0001C10201024104E104E104E1031103510F0
:1000E00039103F1043104E104910E710EC10F1107A
:1000F000FB1005114F114F114F110F111911231141
:100100002D113A114F11421105A84CCDB2D44EB960
:100110003836A9020C50B9918688083CA6AAAA2AAA
:10012000BE000000803F070605040100080A0B0C12
:100130000D0900000000240027002A002D003000D7
:10014000080B000202020100090400000102020083
:100150000005240010010524010101042402060504
:100160002406000107058103100040090401000274
:100170000A00000007050202400000070583024054
:1001800000000403090441726475696E6F204C4CD1
:10019000430041726475696E6F204C656F6E6172C9
:1001A000646F00120100020000004041233680000D
:1001B000010102030112010002EF02014041233656
:1001C0008000010102030100000000250028002B2F
:1001D000002E00310004040404040304050202029A
:1001E00002040302020202060606060606040402D0
:1001F00002020404040802011040804010204080E4
:10020000408008020401804020100201108010206C
:100210004040200000000200090F0000030401001C
:100220000C000000000000000000000000000000C2
:100230000000D51E11241FBECFEFDAE0DEBFCDBF18
:1002400027E0ACE4B3E001C01D92A331B207E1F7AF
:1002500013E0A0E0B1E0EEE5F9E402C005900D92F4
:10026000AC34B107D9F711E0CAE1D1E004C021975D
:10027000FE010E940220C931D107C9F70E946F1107
:100280000C94AD240C940000823108F08251E82FC8
:10029000F0E0EA5DFE4FE49180917B00E3FB2227D2
:1002A00020F930E095E0220F331F9A95E1F78F7D1A
:1002B000282B20937B00E770E064E0937C00809122
:1002C0007A00806480937A0080917A0086FDFCCF6A
:1002D000809178002091790090E0922B08953FB7AB
:1002E000F89480914C0590914D05A0914E05B091E8
:1002F0004F0526B5A89B05C02F3F19F00196A11DFB
:10030000B11D3FBFBA2FA92F982F8827820F911DAB
:10031000A11DB11DBC01CD0142E0660F771F881FF2
:10032000991F4A95D1F7089580E090E0089580E004
:100330000895FC0182818F5BFB01808381E0089539
:100340008DE499E4A4E4B9E4FB0180839183A28362
:10035000B38384E00895CF92DF92EF92FF920F93E0
:100360001F93CF93DF93CDB7DEB7C456D1090FB635
:10037000F894DEBF0FBECDBF6C01DB019C919E5F88
:100380009C93FE01319684E6DF011D928A95E9F780
:1003900088E089838BE08A8322E02C8391E09D832F
:1003A0009E8339E0398774E07A879E879F873A8BEE
:1003B00044E24B8B9C8B00E011E01E8B0D8B89E09F
:1003C000E82EF12CF88EEF8A998F3B8F7C8F2F8F40
:1003D00098A353E059A387E08CA34DA39EA318A72D
:1003E0000FA301E410E01AA709A786E08BA74CA78A
:1003F0002DA79EA79FA789AB4AAB2BAB2CAB2DABF0
:100400003FAB48AF59AF9AAF5BAF9CAF2DAF9EAF3C
:1004100021963FAF219722964FAF229723965FAF49
:10042000239724962FAF249725967FAF259726965E
:100430009FAF269727969FAF279728969FAF28971D
:100440002A963FAF2A9745E02B964FAF2B972D96D4
:100450002FAF2D9760E470E02F967FAF6EAF2F9790
:1004600063964FAF639785E264968FAF6497659606
:100470009FAF659766969FAF669767969FAF6797A2
:1004800068963FAF689769964FAF69976B962FAFA5
:100490006B976D967FAF6EAF6D97A1964FAFA1979B
:1004A000A2968FAFA297A3969FAFA397A4969FAF54
:1004B000A497A5965FAFA597D60112969C91129727
:1004C0009B839B879F5F9A8F9D8F13968C912C9611
:1004D0008FAF2C978F5F80686A968FAF6A9744E6DC
:1004E00050E0BF0180E00E94940BCC59DF4F0FB663
:1004F000F894DEBF0FBECDBFDF91CF911F910F915A
:10050000FF90EF90DF90CF900895CF93DF9390E02E
:10051000FC01EC50FE4F2491FC01EB52FE4F849104
:10052000882361F190E0880F991FFC01EE5CFE4F7B
:10053000C591D491FC01E953FE4FA591B49161118D
:1005400009C09FB7F8948881209582238883EC9115
:100550002E230BC0623061F49FB7F8943881822F4C
:10056000809583238883EC912E2B2C939FBF06C00C
:100570008FB7F894E8812E2B28838FBFDF91CF911E
:1005800008958F929F92AF92BF92CF92DF92EF9297
:10059000FF926B017C010E946F014B015C01C11451
:1005A000D104E104F104F1F00E946F01DC01CB0100
:1005B00088199909AA09BB09883E9340A105B1058C
:1005C00070F321E0C21AD108E108F10888EE880E24
:1005D00083E0981EA11CB11CC114D104E104F104F4
:1005E00019F7DDCFFF90EF90DF90CF90BF90AF90E5
:1005F0009F908F9008952FB7F8946091480570915F
:10060000490580914A0590914B052FBF08951F928F
:100610000F920FB60F9211242F933F938F939F93B6
:10062000AF93BF938091480590914905A0914A05E9
:10063000B0914B053091470523E0230F2D3720F46F
:100640000196A11DB11D05C026E8230F0296A11D2C
:10065000B11D209347058093480590934905A093C9
:100660004A05B0934B0580914C0590914D05A091A2
:100670004E05B0914F050196A11DB11D80934C050B
:1006800090934D05A0934E05B0934F05BF91AF9148
:100690009F918F913F912F910F900FBE0F901F90C0
:1006A00018956D3F710554F46A3F71056CF4663F0F
:1006B000710551F0683F710589F406C09B012E5FFA
:1006C00031092230310550F4DC018D919C91DC011F
:1006D000ED91FC910190F081E02D099408950C9426
:1006E0003C240C94342487FF0DC09CE0980F92307A
:1006F00048F0982F9B7F993F29F0803F08F4807F36
:1007000090E0089580E090E008959C018F7C80380F
:10071000910561F0203D310549F081E0203E310531
:1007200039F0203C310521F080E0089581E0089502
:100730000895FF920F931F93CF93DF93C6EAD2E001
:1007400004E813E0C8010E947103F82EC801019665
:100750000E9471032F2D30E0322F2227280F311DE8
:10076000299339930E5F1F4F043E83E0180751F71A
:10077000DF91CF911F910F91FF900895633059F051
:1007800028F4613041F0623031F00895643029F08E
:10079000653039F00895469808951092BF00109280
:1007A000D200282F23702093460581E090E0A0E03E
:1007B000B0E004C0880F991FAA1FBB1F2A95D2F76B
:1007C000809590915D03892380935D0308959093B4
:1007D000BF008093D20008956330A1F028F4613007
:1007E00049F0623049F008956530A1F068F0663054
:1007F00059F10895469A28C0469A28E0429FC001C0
:1008000011242EC0469A089584E08093BF00109270
:10081000D2000895E82FE370E093460581E090E070
:10082000A0E0B0E004C0880F991FAA1FBB1FEA9583
:10083000D2F720915D03282B20935D032091720352
:10084000822B80937203089590ED980F9F3250F49D
:10085000E82FF0E0EE0FFF1FEA5BFD4F80819181F2
:100860000C94E70308951F93CF93DF93142FC62FA3
:10087000D0E0DC2FCC27C80FD11D7FED710F6EE0CB
:10088000CE010E94E90F0E94E40FCE01D7FD019630
:10089000BC0175956795492F4F776F77212F80EEB3
:1008A00090E00E946210103159F4CE0125E0959538
:1008B00087952A95E1F7DF91CF911F910C94E7037B
:1008C000DF91CF911F91089580917403811112C01F
:1008D0008091730381110EC0589A0E94FB026093AD
:1008E0006E0370936F03809370039093710381E0A4
:1008F00080936D0308954F925F926F927F928F92D3
:100900009F92AF92BF92CF92DF92EF92FF920F939E
:100910001F93CF93DF930E94640480915703882331
:1009200079F084EF91E09093550380935403C09045
:100930005403D090550326013601A12CB12C82C05E
:100940001092550310925403F2CFC8010E94710314
:1009500087FD8FE7E401CA0DDB1DFE01E458FE4F61
:100960008083C80108960E947103FE01EA57FD4F7B
:10097000811181E08083C80140960E947103882321
:1009800009F465C0813108F080E1FE01E45AFE4FB0
:100990008083C80148960E94710387FD8FE7FE019E
:1009A000EA5FFD4F8083C80180960E94710387FD36
:1009B0008FE7FE01EA51FE4F8083C70180569F4FAB
:1009C0000E94710387FD8FE7FE01EA59FD4F808386
:1009D000C70188559F4F0E94710387FD8FE7FE0175
:1009E000EA5BFD4F8083C70180559F4F0E947103D2
:1009F00087FD8FE7FE01EF5DFA4F8083C7018854C2
:100A00009F4F0E94710387FD8FE7CA5DDD4F88838A
:100A10008FEF881A980A0F5F1F4F8FEFE81AF80AB6
:100A200088E08816910409F090CF88E0A80EB11CE8
:100A300088E2680E711C80E2480E511C80E1A81605
:100A4000B10439F072018301812C912C7ECF81E0B9
:100A50009CCFC6018E539E4F0E94710387FD8FE786
:100A600080934001C6018D539E4F0E9471038823DD
:100A700021F0813118F080E101C081E080934101D3
:100A8000DF91CF911F910F91FF90EF90DF90CF906A
:100A9000BF90AF909F908F907F906F905F904F909E
:100AA0000895CF93DF9380916A03843609F05BC089
:100AB00080916B038E3609F056C0C1E0C093750378
:100AC0000E946404209160038091610390E030E80B
:100AD000239F800D911D11249093FD048093FC04AD
:100AE000803821E09207B1F4109275036BE7669BA2
:100AF00007C081E991E00E946F03C093560306C0CE
:100B000080E991E00E946F03C0935803DF91CF9179
:100B10000C947B04823C914071F46091620382ECFE
:100B200091E00E946F036091630383EC91E0DF9199
:100B3000CF910C946F03C0E0D0E0FE01E15AFC4F6E
:100B40008091FC049091FD048C0F9D1F2091540313
:100B5000309155036381820F931F0E946F0321968A
:100B6000C830D10551F7DF91CF910895962F7FEFCF
:100B7000740F706868E00E94E90F0E94E40F0C9403
:100B80006404962F7FEF740F706868E00E94E90F8D
:100B90000E94E40F0C946404962F7FEF740F706929
:100BA00069E00E94E90F0E94E40F0C946404242F72
:100BB000462F682F80EB90E00E9462100C94640432
:100BC000962F7FEF740F706B6BE00E94E90F0E940D
:100BD000E40F0C9464042F923F924F925F926F92B5
:100BE0007F928F929F92AF92BF92CF92DF92EF92BD
:100BF000FF920F931F93CF93DF93CDB7DEB7279765
:100C00000FB6F894DEBF0FBECDBFA12CB12C992436
:100C1000939485B1282F2F78C50154E0880F991F30
:100C20005A95E1F7822B85B9AC8219823C813093C9
:100C3000450589810E94440189810E9444018C01FB
:100C400080915203882309F4BAC08091FE049091E8
:100C5000FF04C097DCF16BE788EE93E00E946F031E
:100C600040E9C42ED12CE090FE04F090FF04F7017F
:100C7000EE0FFF1FEA55FD4F808191810E94E7032F
:100C800081E0E81AF108F7FC05C0F092FF04E09259
:100C9000FE0406C0EFE2F0E0F093FF04E093FE04F0
:100CA000589A62E370E080E090E00E94C102589898
:100CB00062E370E080E090E00E94C102F1E0CF1AB0
:100CC000D10889F6109252030E949903F0904505CD
:100CD00026E0F2120AC0053F31E01307F4F08091DC
:100CE00050039091510305960CC087E0F81215C08F
:100CF000053F91E019078CF08091500390915103CA
:100D0000059790935103809350030E94E70368EC8A
:100D100070E080E090E00E94C10288EF8F0D823089
:100D200008F04DC0053FE1E01E070CF448C080917B
:100D3000FE049091FF042091500360915103FC0147
:100D4000EE0FFF1FEA55FD4F208361838E539E4FA8
:100D5000880F991F0E946F038091FE049091FF04F9
:100D6000880F991F609150038B579C4F0E946F030F
:100D70008091FE049091FF0401969093FF0480936C
:100D8000FE04E12CF12CC7010E94E70383E290E00E
:100D90000197F1F7FFEFEF1AFF0AE11424E0F206E2
:100DA00091F7589A64EF71E080E090E00E94C102F0
:100DB00080915003909151030E94E70358988090CE
:100DC0007303882021F080915E0380935303809108
:100DD000530390914505882371F084EF890F843087
:100DE00050F4892F90E0880F991F8A559E4FFC017F
:100DF0001183008313C2953001F580915E03053F96
:100E00001140ACF081110AC290925E0380915203AE
:100E1000882309F403C280915003909151030197F4
:100E200090935103809350030E94E703F7C18823F6
:100E300009F4F4C110925E03F1C1943049F5809138
:100E40005903053F1140F4F08111E8C19092590314
:100E500080915203882359F080915003909151035F
:100E6000019690935103809350030E94E7030E94E0
:100E7000FB02609341057093420580934305909374
:100E80004405CCC1882309F4C9C110925903C6C1D5
:100E90009330B9F480915E03882399F080917403B4
:100EA000882379F08091480190914901801791073A
:100EB00009F4B4C1109349010093480190925B0377
:100EC000ADC1E92FF0E0FF83EE83EA57FD4F80814B
:100ED0002E813F81813009F0B6C0243031050CF4F9
:100EE0009DC1F901EE0FFF1FEA55FE4F80819181F0
:100EF0009801281B390BC90107960F9708F48EC17A
:100F0000780163E0F594E7946A95E1F71183008333
:100F10008E819F818A5F9D4F6C01FC01808190E0F2
:100F20008E159F050CF046C02E813F8120503B4F0F
:100F30003901F901808181113DC080915603EE8114
:100F4000FF81E45AFE4F811107C080915703882327
:100F500019F080818F5F01C080818093200580918E
:100F60005E03882341F08091200590E002968F7007
:100F700099278093200520912005EE81FF81EA5179
:100F8000FE4F8080422F682D0E811F8104581E4F16
:100F9000F80180812D830E94CC052D81482DF80118
:100FA000608180E990E00E9462100E94640421E068
:100FB000F3012083F601808190E08E159F050CF4EB
:100FC0002DC10E811F8100501B4FF801808181309F
:100FD00009F024C180915603EE81FF81E45AFE4F4F
:100FE000811107C080915703882319F080818F5F9A
:100FF00001C080818093200580915E03882341F0A9
:101000008091200590E002968F70992780932005AB
:10101000E0902005EE81FF81EA51FE4FF0802E81A5
:101020003F8124583E4F69014E2D6F2DF90180817B
:101030000E94C1054E2D6F2DF60180810E94B605DC
:10104000F8011082EBC0220F331F3B832A83F90182
:10105000EA55FE4F808191819801281B390BC90107
:1010600007960F9708F4DAC011830083980117FFE1
:1010700002C0295F3F4F43E0359527954A95E1F738
:10108000EE81FF81EA59FD4FC080EE81FF81EA5B6E
:10109000FD4F7080C71428F42C1538F0721640F4F8
:1010A00006C0271520F0C21618F42C2D01C0272DDC
:1010B000EE81FF81EF5DFA4F2080312C412C512CC5
:1010C000D12CE12CF12C822F90E0A0E0B0E09C012B
:1010D000AD012C193D094E095F09EE81FF81EA5DE2
:1010E000FD4F6081862F90E0A0E0B0E0BC01CD0113
:1010F00062197309840995090E94DE1F272D30E0CB
:1011000040E050E02C193D094E095F090E944A2435
:10111000220E331E441E551E80915903882371F000
:10112000EE81FF81E458FE4F808180934001EE8183
:10113000FF81E45AFE4F808180934101C22CD12C63
:10114000EA81FB81E050FF4F808191818C159D05E4
:1011500009F45EC07090740360905E03711002C069
:101160008820D9F06620C9F08E819F818430910556
:10117000A4F4880F991F880F991FFC01E45BFE4FB0
:101180007F01B801110F880B990B0E942122F701F2
:10119000608371838283938315C080915603EE81AF
:1011A000FF81E45AFE4F81110AC0809157038823C2
:1011B00031F0808190E001968F70992701C0808185
:1011C00080932005662089F0711002C0882029F0E4
:1011D0002E813F812430310544F08091200590E03C
:1011E00002968F70992780932005109120058E819B
:1011F0009F8184589E4F7C01412F622DFC0180818C
:101200000E94E005412F622DF70180810E94D705E1
:10121000EA81FB81E050FF4FD182C082FC81F85F00
:10122000FC832981213019F021E02983FFCC3FEF95
:10123000A31AB30A88E0A816B10409F0EACC0E9408
:10124000FB02C0904105D0904205E0904305F0902C
:101250004405DC01CB018C199D09AE09BF09893E0B
:101260009340A105B10540F080915903882321F0F6
:1012700080915A038823F1F00E94FB02DC01CB012C
:101280008C199D09AE09BF09883E9340A105B1059F
:10129000B0F480915903882391F080915A038823F8
:1012A00071F010925A0310925C031092BF001092DA
:1012B000D20005C0298120935A0320935C0327960E
:1012C0000FB6F894DEBF0FBECDBFDF91CF911F9157
:1012D0000F91FF90EF90DF90CF90BF90AF909F90D5
:1012E0008F907F906F905F904F903F902F900895D8
:1012F000DC01ED91FC910190F081E02D0994409189
:101300005F055091600520915D0530915E054217A3
:101310005307B4F49091E8009570E1F39091E800E0
:1013200092FD19C08093F10080915F059091600556
:1013300001968F739927892B19F48EEF8093E8001B
:1013400080915F0590916005019690936005809370
:101350005F0581E0089580E00895CF92DF92EF92DB
:10136000FF920F931F93CF93DF931F92CDB7DEB7FA
:10137000182F062FE42E862F880F8E5F99830E94E8
:101380007F0983E00E947F09F12EC12E9981D92E19
:101390008C2D8F19801798F4F601E7FE02C0849116
:1013A00001C080810E947F09182F80E00E947F0980
:1013B0008123FFEFCF1ADF0A8111EACF01C081E05C
:1013C0000F90DF91CF911F910F91FF90EF90DF90E1
:1013D000CF900895615030F02091F100FC012083FE
:1013E0000196F8CF289884E6809361050895CF92FE
:1013F000DF92EF92FF920F931F93CF93DF936C01D5
:101400007A018B01C0E0D0E0CE15DF0589F0D8016C
:101410006D918D01D601ED91FC910190F081E02D4F
:10142000C6010995892B11F47E0102C02196ECCFEB
:10143000C701DF91CF911F910F91FF90EF90DF9047
:10144000CF900895FC01918D828D981761F0828D67
:10145000DF01A80FB11D5D968C91928D9F5F9F73E8
:10146000928F90E008958FEF9FEF0895FC01918D8A
:10147000828D981731F0828DE80FF11D858D90E0F7
:1014800008958FEF9FEF0895FC01918D228D892F94
:1014900090E0805C9F4F821B91098F73992708957C
:1014A0008FEB95E00E94440A21E0892B09F420E0AB
:1014B000822F0895FC01848DDF01A80FB11DA35A6E
:1014C000BF4F2C91848D90E001968F739927848F64
:1014D000A689B7892C93A089B1898C9180648C935B
:1014E000938D848D981306C00288F389E02D808146
:1014F0008F7D80830895EF92FF920F931F93CF9378
:10150000DF93EC0181E0888F9B8D8C8D981305C053
:10151000E889F989808185FD24C0F62E0B8D10E0C5
:101520000F5F1F4F0F731127E02E8C8DE8120CC038
:101530000FB607FCFACFE889F989808185FFF5CFDE
:10154000CE010E945A0AF1CF8B8DFE01E80FF11DEA
:10155000E35AFF4FF0820B8FEA89FB89808180621A
:1015600007C0EE89FF896083E889F98980818064FA
:10157000808381E090E0DF91CF911F910F91FF90E8
:10158000EF900895CF93DF93EC01888D8823C9F005
:10159000EA89FB89808185FD05C0A889B9898C917C
:1015A00086FD0FC00FB607FCF5CF808185FFF2CF17
:1015B000A889B9898C9185FFEDCFCE010E945A0A86
:1015C000E7CFDF91CF91089580E090E0892B29F05B
:1015D0000E94500A81110C9400000895CF93DF936C
:1015E0001F92CDB7DEB76983DC01ED91FC910280DB
:1015F000F381E02D41E050E0BE016F5F7F4F099520
:101600000F90DF91CF9108950E94D3238093E9003A
:101610008091F200882319F08AE38093E80008950E
:101620001F920F920FB60F9211242F933F934F9357
:101630005F936F937F938F939F93AF93BF93CF935A
:10164000EF93FF93C091E1008091E100837F80934D
:10165000E100C3FF0FC01092E90081E08093EB002E
:101660001092EC0082E38093ED0010924F0388E02B
:101670008093F000C2FF19C083E00E94060B8091A6
:101680006205882339F0809162058150809362055C
:10169000882389F180916105882339F08091610563
:1016A000815080936105882341F1C4FF10C080916F
:1016B000E2008E7E81608093E2008091E1008F7E67
:1016C0008093E10080914D038E7E806111C0C0FF48
:1016D00016C08091E2008E7E80618093E20080914E
:1016E000E1008E7E8093E10080914D038E7E8160CB
:1016F00080934D0304C05D9ACDCF289AD6CFFF9139
:10170000EF91CF91BF91AF919F918F917F916F9109
:101710005F914F913F912F910F900FBE0F901F90AF
:10172000189583E00C94060BDF92EF92FF920F93D3
:101730001F93CF93DF93D82E8A017B01E40EF51E11
:10174000EB01CE15DF0571F0D7FE03C0FE018491D9
:1017500001C088810E947F0921968111F2CF8FEF0D
:101760009FEF01C0C801DF91CF911F910F91FF90B2
:10177000EF90DF9008958F929F92AF92BF92CF9299
:10178000DF92EF92FF920F931F93CF93DF9300D0DE
:101790001F92CDB7DEB7382F8B0180914F03811197
:1017A00003C08FEF9FEF7DC080914D0380FF05C088
:1017B0008091E00082608093E0004A018AEFF82E79
:1017C000832F8770E82E9FE3C92E832F8072B82E57
:1017D0002AE3D22E832F8074A82E8114910409F459
:1017E00057C08FB7F894E092E9009091E80095FF18
:1017F00005C09091F2002C2D291B01C020E08FBF65
:10180000211110C0FA94FF2061F261E070E080E0E5
:1018100090E039834A835B830E94C10239814A8107
:101820005B81DBCF822F90E0881699060CF4282D7F
:101830006FB7F894E092E9008091E80085FF26C038
:10184000822F90E0881A990ABB2029F02150A8F035
:101850001092F100FBCFF80137FF07C0215058F07C
:1018600074917093F1003196F9CF215020F071916D
:101870007093F100FACF080F191F8091E80085FFDF
:101880000DC08114910411F4A11008C06FBFA5CF41
:101890005D9884E680936205CA0103C0D092E80097
:1018A000F5CF0F900F900F90DF91CF911F910F9177
:1018B000FF90EF90DF90CF90BF90AF909F908F9070
:1018C0000895CF93DF93EC0180911103882331F0C9
:1018D00083E00E94BB0B1816190634F081E090E0FB
:1018E0009B838A8380E090E0DF91CF91089590916F
:1018F0004F03992311F057FF03C08FEF9FEF089517
:101900002FB7F89487708093E9008091F20090E0FF
:10191000841795070CF4AC01842FFB0194E68150E9
:1019200038F02898909361053091F1003193F7CF0A
:101930004115510521F08091F200882319F02FBF45
:10194000CA0108958BE68093E800F9CFCF93DF9327
:101950001F92CDB7DEB7FC018485958597FD05C044
:101960002FEF3FEF358724870FC041E050E0BE01E5
:101970006F5F7F4F82E00E94770C019719F4898195
:1019800090E002C08FEF9FEF0F90DF91CF9108950D
:101990000F931F93CF93DF931F92CDB7DEB78C01C8
:1019A000FC018485958597FF12C041E050E0BE019F
:1019B0006F5F7F4F82E00E94770C019719F42981B5
:1019C00030E002C02FEF3FEFF80135872487F801A0
:1019D000848595850F90DF91CF911F910F91089588
:1019E0009FB7F89487708093E9008091F2009FBFC1
:1019F0000895FC018485958597FD06C082E00E94CC
:101A0000F00C90E00196089582E00E94F00C90E0C6
:101A100008958091540581110DC082E08093500596
:101A200084E080935105109253051092520581E095
:101A30008093540580E595E008950F931F93CF930D
:101A4000DF931F92CDB7DEB782E0898342E450E096
:101A500060E471E080E80E94940B0E94090DDC01B3
:101A600012960D911C9113970115110569F0D8017B
:101A7000ED91FC910280F381E02DBE016F5F7F4FFD
:101A8000C801099597FF07C089810F90DF91CF9119
:101A90001F910F910895F80100851185E5CF1F92E0
:101AA0000F920FB60F921124CF92DF92EF92FF9216
:101AB0000F931F932F933F934F935F936F937F9356
:101AC0008F939F93AF93BF93EF93FF93CF93DF9346
:101AD000CDB7DEB76C97DEBFCDBF1092E900809125
:101AE000E80083FFFAC168E0CE0145960E94EA094A
:101AF00082EF8093E8008D8987FF05C09091E80010
:101B000090FFFCCF03C09EEF9093E800982F907653
:101B100009F0C6C09E892F89188D91110CC080389C
:101B200029F480914E038093F10002C01092F100DD
:101B30001092F10047C1422F50E0512B913051F4E7
:101B4000811140C14130510509F03CC180914E03E3
:101B50008D7F0BC0933061F4811134C14130510548
:101B600009F030C180914E03826080934E032AC1F8
:101B7000953041F48091E80080FFFCCF20682093ED
:101B8000E30020C1963009F05FC0EB8CFC8C109212
:101B9000E9001092600510925F05123091F51092E5
:101BA0005E0510925D050E941D0D99E0BE016F5FFC
:101BB0007F4FDB01E92F1D92EA95E9F799831A839C
:101BC00091E09E8390EA98879AEF998720915F052C
:101BD00030916005275F3F4F3C832B838D831092AC
:101BE000E9001092600510925F05F0925E05E092A8
:101BF0005D0549E050E080E00E94940B0E941D0DBD
:101C0000E1C0F0925E05E0925D050E94090DDC01E5
:101C10001296ED90FC901397E114F10409F4C0C002
:101C2000D701ED91FC910480F581E02DBE016B5E42
:101C30007F4FC7010995009719F00CF0C3C0C6C0CB
:101C4000F701E084F184E8CF973009F4BFC0983001
:101C500021F481E08093F100B5C0993009F0B2C061
:101C6000837009F0B3C0E3E1F3E081E021E036E303
:101C70009081992361F08093E9002093EB0091918A
:101C80009093EC003093ED008F5F873089F78EE7FB
:101C90008093EA001092EA008F8980934F0392C0EC
:101CA0008B8D9C8D1092E9001092600510925F055B
:101CB00090935E0580935D05898D811156C08E8954
:101CC0009D89913A59F4813209F080C047E050E093
:101CD0006AE073E080E00E94940B74C0913209F0D6
:101CE00075C0833289F4888D90E0982F88272F89DA
:101CF000822BA0E0B0E08093060390930703A093AB
:101D00000803B09309035EC0803269F48091E80053
:101D100082FFFCCF67E08AE093E00E94EA098BEF44
:101D20008093E80006C0823209F04CC08F8980930E
:101D3000110380914C03882319F0EEEFFAE002C002
:101D4000E0E0F8E080910A0390910B03A0910C036E
:101D5000B0910D03803B9440A105B10509F088C006
:101D60008091110380FFA0C083C00E94090DDC0197
:101D700012960D911C9113970115110539F1D80197
:101D8000ED91FC910190F081E02DBE016B5E7F4FE3
:101D9000C8010995811116C0F80100851185ECCFA5
:101DA0001130C1F0133091F48F89882309F455C0A4
:101DB0008230E9F440E860E182E991E00E94AD09F7
:101DC000882321F08EEF8093E80087C081E2809322
:101DD000EB0083C08B8D9C8D089711F410935C05EC
:101DE00080915C05811136C063EA71E038C08130B2
:101DF00029F440E86BE086E891E0E0CF833031F7EA
:101E00000E94090DDC011296ED90FC9013978E0153
:101E10000F5F1F4F6801E114F10479F0D701ED91D4
:101E2000FC910680F781E02DB801C7010995080FE4
:101E3000111DF701E084F184EECFD8011C92F60168
:101E400001900020E9F73197BF016C197D0940E04E
:101E5000C601B4CF65EB71E002C062E871E06115C4
:101E6000710509F4B3CFFB01449150E080E833CF12
:101E70000FB6F894A8958091600088618093600007
:101E8000109260000FBEA895EE3F2AE0F20739F0ED
:101E90008091FE0A9091FF0A9183808393CF1092E4
:101EA000FF0A1092FE0A8ECFEE3F8AE0F80731F06B
:101EB000808191819093FF0A8093FE0A87E797E7DC
:101EC000918380839BE088E10FB6F894A895809376
:101ED00060000FBE9093600075CF6C960FB6F894BB
:101EE000DEBF0FBECDBFDF91CF91FF91EF91BF91CC
:101EF000AF919F918F917F916F915F914F913F91A2
:101F00002F911F910F91FF90EF90DF90CF900F9046
:101F10000FBE0F901F9018951F920F920FB60F9241
:101F200011242F933F934F935F936F937F938F93DE
:101F30009F93AF93BF93EF93FF938FEB95E00E9436
:101F40005A0AFF91EF91BF91AF919F918F917F912D
:101F50006F915F914F913F912F910F900FBE0F9016
:101F60001F9018951F920F920FB60F9211242F9366
:101F70008F939F93EF93FF93E091CF05F091D0055E
:101F80008081E091D505F091D60582FD12C0908147
:101F90008091D8058F5F8F732091D905821751F0FA
:101FA000E091D805F0E0E154FA4F958F8093D80581
:101FB00001C08081FF91EF919F918F912F910F90A0
:101FC0000FBE0F901F9018958091B6058F5F0C94EF
:101FD000060BCF93DF9300D000D0CDB7DEB7698377
:101FE0007A838B839C838091B60544E050E0BE01E8
:101FF0006F5F7F4F8F5F0E94BB0B0F900F900F9012
:102000000F90DF91CF910895E6E1F2E04491E7EF80
:10201000F1E02491E8EDF1E09491992309F451C0A5
:102020004423E1F150E0FA013197EF30F105B0F5CA
:10203000EA59FF4F0C940220309180003F7707C08F
:10204000309180003F7D03C030918000377F309316
:10205000800024C034B53F7702C034B53F7D34BD25
:102060001DC0309190003F7707C0309190003F7DB8
:1020700003C030919000377F309390000FC03091B3
:10208000C0003F7703C03091C0003F7D3093C00057
:1020900005C03091C200377F3093C200E92FF0E0D5
:1020A000EE0FFF1FE953FE4FA591B4919FB7F8942F
:1020B000EC91811103C020952E2301C02E2B2C936F
:1020C0009FBF0895EF92FF921F93CF93DF931F92CC
:1020D000CDB7DEB77C01162F2150203108F04EC05D
:1020E00080E8E816F1040CF449C0A1EEEA16F10408
:1020F000ACF58091110790911207DC01ED91FC91F4
:102100006E2D622B0190F081E02D4983099580911D
:10211000110790911207DC01ED91FC91612F6F770F
:102120000190F081E02D0995E894E4F84981B0EC44
:10213000EB16F10419F18091110790911207DC015F
:10214000ED91FC91642F6F770190F081E02D0F905D
:10215000DF91CF911F91FF90EF900994C701865FA7
:1021600091090A9758F4B70181E197E00F90DF9148
:10217000CF911F91FF90EF900C9451030F90DF913E
:10218000CF911F91FF90EF900895CF93DF93EC01D3
:1021900061E083E00E948502209711F480E004C092
:1021A000CF3FD10529F481E0DF91CF910C94041049
:1021B000E6E1F2E0E4918E2F90E0FC013197EF3000
:1021C000F10508F06CC0EB58FF4F0C94022084B569
:1021D000806884BDC7BD68C084B5806284BDC8BD49
:1021E00063C080918000806880938000D0938900D4
:1021F000C093880059C080918000806280938000E5
:10220000D0938B00C0938A004FC08091800088607B
:1022100080938000D0938D00C0938C0045C0809146
:102220009000806880939000D0939900C0939800AC
:102230003BC080919000806280939000D0939B007F
:10224000C0939A0031C08091900088608093900084
:10225000D0939D00C0939C0027C08091C0008068EF
:102260008093C0008091C0008F7B8093C000C0939A
:10227000CF001AC08091C00080628093C000C093DC
:10228000D00012C08091C20088608093C20080910B
:10229000C2008B7F8093C200C093D20005C0C038BB
:1022A000D1050CF080CF7ACFDF91CF910895BC019A
:1022B000009791F0FC0101900020E9F73197AF0100
:1022C000481B590BE0916305F09164050280F3818E
:1022D000E02D83E695E0099480E090E00895CF93A7
:1022E000DF93CDB7DEB7CE54D1090FB6F894DEBF79
:1022F0000FBECDBF789484B5826084BD84B5816003
:1023000084BD85B5826085BD85B5816085BD8091C0
:102310006E00816080936E00109281008091810038
:102320008260809381008091810081608093810030
:102330008091800081608093800080919100826014
:1023400080939100809191008160809391008091B1
:1023500090008160809390008091C10084608093A0
:10236000C1008091C10082608093C1008091C10052
:1023700081608093C1008091C30081608093C3001D
:102380008091C00082608093C0008091C200816013
:102390008093C20080917A00846080937A0080915B
:1023A0007A00826080937A0080917A0081608093C5
:1023B0007A0080917A00806880937A0010924F03AF
:1023C00010924E0310924D038091D700816080934C
:1023D000D70080EA8093D80089B5806189BD89B52E
:1023E000826089BD09B400FEFDCF61E070E080E04D
:1023F00090E00E94C1028091D8008F7C8061809320
:10240000D8008091E000807F8093E0008091E1001F
:102410008E7E8093E1008DE08093E200559A209AB1
:10242000EEEFFFE7859194918B3F9C4D19F481E08D
:1024300080934C0383E08093BF001092C30080918F
:10244000C20089608093C2008FEF8093D10082E840
:102450008093C00011E01093C10082B7806382BFF7
:1024600080917A008B7F80937A0080917A008260DD
:1024700080937A0080917A00816080937A0061E095
:1024800083E00E94850261E087E00E94850262E0AD
:1024900084E00E94850262E087E00E94850262E09B
:1024A0008EE00E94850262E080E10E94850261E088
:1024B00088E00E94850261E089E00E94850261E077
:1024C0008AE00E94850261E085E00E94850261E069
:1024D00086E00E948502E0911107F0911207A08921
:1024E000B18982E08C93A485B5851C92A685B785B9
:1024F0008FE38C93108EA489B58986E08C93A28992
:10250000B3898C9180618C93A289B3898C91886006
:102510008C93A289B3898C9180688C930288F3890B
:10252000E02D80818F7D8083109283061092820639
:102530001092810610928A061092890610928806DF
:10254000109287061092100710928D0610928C063A
:1025500010928B0610928E0610928F0610928006B3
:102560000E94EB058091BE019091BF0185369105D7
:10257000D4F08091C0019091C101853691059CF005
:102580008091C2019091C3018536910564F08091DC
:10259000C4019091C501853691052CF080915E03B0
:1025A00081111093F9048091F904882391F081E05E
:1025B0000E94041000E010E060E0C8010E946F0378
:1025C0000F5F1F4F011534E01307B1F780E00E9441
:1025D000041080E991E00E9471038B3721F481E0BF
:1025E0008093580302C01092580381E991E00E9441
:1025F00071038B3721F481E08093560302C010925F
:10260000560380915803882311F0669B9AC38091EA
:10261000560381118CB18FEF9FEF909370058093DB
:102620006F0581E00E9404100E94EB0580E00E948B
:102630000410809110019091110181349105C4F42E
:1026400088EE93E00E9471038B3709F0EBC081E0C4
:10265000809376030E94041062E370E080E090E0D3
:102660000E94C1020E94990380E00E940410DAC017
:102670008091120190911301813491050CF381E056
:102680008093520380E094E0909351038093500331
:1026900074E1E72EF12C00915003109151031016B4
:1026A000110674F601501109109351030093500361
:1026B000C801B7010E94EE1F0E940410C8010E94C9
:1026C000E70363E070E080E090E00E94C102E3CFA6
:1026D00066993FC380915703882309F43AC3109247
:1026E000570310925503109254038091580381119F
:1026F0000E947B0480917703811133C3809177031B
:10270000882309F431C30E94EB0580917403811181
:102710002EC380917303811171C580917203811161
:102720006DC580917403882311F40C94EB1B809188
:102730008306813108F47BC08091F1049091F2040A
:10274000A091F304B091F4044091F5045091F60483
:102750006091F7047091F804841B950BA60BB70BDE
:102760008F739927AA27BB27892B8A2B8B2B09F4D8
:10277000FAC18091F5049091F604A091F704B0910C
:10278000F804880F991F880F991FFC01EF50FC4F28
:1027900000811181F280E3804091F1045091F204B4
:1027A0006091F3047091F4048091F5049091F60423
:1027B000A091F704B091F804481759076A077B07FE
:1027C000B9F08091F5049091F604A091F704B091CE
:1027D000F8040196A11DB11D8F739927AA27BB2765
:1027E0008093F5049093F604A093F704B093F80453
:1027F00001111FC26091F90470E080E090E019A21D
:102800002AE030E040E050E00E947C24605D68A354
:10281000CE0180960E94571189E493E00E945711DF
:102820000E94E40A80917503811181CF51CF80917C
:10283000110790911207DC01ED91FC910480F58164
:10284000E02D0995892B09F477CF8091110790919C
:102850001207DC01ED91FC910680F781E02D0995CE
:102860008C012091890630918A062115310509F0E5
:10287000B8C080938406F09081068F2D0E94730368
:102880000E948503882361F007FD0AC0F092840648
:102890000093850681E090E090938A0680938906F4
:1028A00010918406812F0E947303813F910509F4E2
:1028B00061C084F5803B910509F45FC06CF48039F8
:1028C000910509F45AC0803A910509F456C0803840
:1028D000910509F0E3C051C0803D910509F44AC05B
:1028E0002CF4803C910509F445C0D8C0803E910588
:1028F00009F443C0803F910509F0D0C020E830E0E2
:1029000030938806209387061092810620EF20934B
:10291000900639C0883F9105B9F044F4833F910592
:1029200049F15CF1863F910579F0B8C08A3F910585
:102930000CF4B4C08D3F91053CF09C012E5F310931
:102940002230310508F0AAC090938D0680938C0642
:1029500010928B0610928E0610928F0681E0809363
:10296000100710928A06109289061092880610921B
:10297000870682C722E030E002C023E030E03093D7
:102980008806209387062091890630918A06409117
:10299000870650918806BA016150710926173707DA
:1029A00008F4DAC090938D0680938C061F701F5F29
:1029B00010938B068091850680938E0643305105D7
:1029C00029F48091860680938F0602C010928F06AC
:1029D00010928A0610928906109288061092870635
:1029E00020C087FF45C099278D3F910554F48A3F49
:1029F00091056CF4873F9105C1F0883F9105C1F5C1
:102A000006C0AC014E5F51094230510588F59093E4
:102A10008D0680938C0610928E0610928F0610926F
:102A20008B0681E08093100727C780919006803F36
:102A3000A9F5C9010196F901E45AF94F47EF44ABF2
:102A400020EF30E030938D0620938C0680938E0625
:102A500090938F0610928B0681E08093100710925E
:102A60008A0610928906109288061092870671C015
:102A700080918406F901E45AF94F803FD1F404AB08
:102A8000E0908706F0908806C7010197281739075C
:102A900008F462C020918406203F69F410928A06EF
:102AA000109289061092880610928706109281066D
:102AB00043CE00A7E5CF822F2F962FAF2F970E94EE
:102AC00073038C0190938D0680938C060E9485037E
:102AD0002F962FAD2F97882331F0822F8F708F5F25
:102AE00080938B0602C010928B068091850680939E
:102AF0008E06B3E0EB16F10429F4809186068093EC
:102B00008F0602C010928F0610928A0610928906D4
:102B1000109288061092870681E080931007003B90
:102B20001105A1F054F40039110581F0003A1105A6
:102B300069F00038110569F409C0003D110531F054
:102B4000003E110519F0003C110519F4209381068F
:102B500093C61092810690C62F5F3F4F30938A062E
:102B600020938906E9CD8091B6050E94F00C882358
:102B700009F45AC0C090F104D090F204E090F3043C
:102B8000F090F4045FEFC51AD50AE50AF50A6FE381
:102B9000C622DD24EE24FF248091F5049091F604F2
:102BA000A091F704B091F804C816D906EA06FB060E
:102BB00009F4DFCD8091B6050E94F00C44E050E0AE
:102BC000BE016F5F7F4F8091B6050E94770C04971E
:102BD0000CF4CFCD8091F1049091F204A091F30414
:102BE000B091F404880F991F880F991FFC01EF50D2
:102BF000FC4F49815A816B817C8140835183628380
:102C00007383C092F104D092F204E092F304F09244
:102C1000F4047FEFC71AD70AE70AF70A8FE3C8223E
:102C2000DD24EE24FF24B8CFE12CF12C10E000E0ED
:102C3000B3CDB8018F2D9E2D0E94E90F083009F405
:102C400056C028F40430D1F00630C1F077C00B3004
:102C500009F45AC00E3009F46BC0093009F06EC097
:102C60001F58212F4E2D6F2D80E990E00E94621099
:102C70004E2D612F8F2D0E94EC0357C08091FA04D6
:102C80009091FB04FC01E15AFC4F10839C012F5FE3
:102C90003F4F3093FB042093FA04173F49F406306A
:102CA00039F40E9451051092FB041092FA0446C0B8
:102CB000F901E15AFC4FF0829C012E5F3F4F3093A7
:102CC000FB042093FA04A7EFFA1202C0063049F37E
:102CD000F901E15AFC4FE08203969093FB04809344
:102CE000FA04B7EFEB122AC0063041F5DACF1F57CE
:102CF000212F4E2D6F2D80E890E00E946210612FF1
:102D00008F2D0E94BE0311C021E5210F4E2D6F2D86
:102D100080EB90E00E946210EDE0FE1206C0F8E049
:102D2000EF9EC00111240E94E7030E94640406C0C4
:102D300041E2410F6E2D8F2D0E9433040E94E40F5B
:102D4000FBCC8CB110925503109254030E947B046B
:102D500062CC669BCFCC80915703882309F462C56F
:102D6000C9CC4C9B6CC5CACC4C9976C5CCCC809157
:102D70005E03882309F45AC020E030E040E05EE3BF
:102D800060914C0170914D0180914E0190914F01E5
:102D90000E94D6220E94E92170934B0160934A0160
:102DA00080915B038823D1F06091480170914901C3
:102DB000072E000C880B990B0E94212227E137EB8C
:102DC00041E559E30E94D622609344017093450186
:102DD000809346019093470110925B0320E030E01E
:102DE0004DE453E460915001709151018091520182
:102DF000909153010E9477210E94E92170938A03E8
:102E00006093890320E030E040E05EE3609154018C
:102E10007091550180915601909157010E94D622E0
:102E20000E94E921709343016093420180918903DC
:102E300090918A03009759F46091850370918603FD
:102E400080918703909188030E94432317C08130AB
:102E50009105C9F52BED3FE049E450E4609185030D
:102E60007091860380918703909188030E94772157
:102E700020E030E040E85FE30E9405216B017C0127
:102E800060914A0170914B01072E000C880B990B41
:102E90000E9421229B01AC01C701B6010E94D622EB
:102EA0006B017C016091420170914301072E000C7F
:102EB000880B990B0E9421229B01AC01C701B6012E
:102EC0000E94062162C082309105C9F560914201DD
:102ED00070914301072E000C880B990B0E94212250
:102EE0006B017C012BED3FE049E450E460918503E8
:102EF0007091860380918703909188030E947721C7
:102F000020E030E040E85FE30E9405214B015C01D6
:102F100060914A0170914B01072E000C880B990BB0
:102F20000E9421229B01AC01C501B4010E94D6225E
:102F30009B01AC01C701B6010E94052126C0833068
:102F4000910561F52BED3FE049E450E46091850384
:102F50007091860380918703909188030E94D1220B
:102F600020914A0130914B016091420170914301DF
:102F700018161CF4621B730B02C0620F731F072E1E
:102F8000000C880B990B0E9421226093810370939F
:102F90008203809383039093840375C0049709F0A0
:102FA00072C020E030E040EA50E460918503709107
:102FB000860380918703909188030E94722187FF86
:102FC00060C08091800381115EC0C0904A01D090A2
:102FD0004B01C6010D2C000CAA0BBB0BD194C19464
:102FE000D1080D2C000CEE08FF08C816D906EA0619
:102FF000FB065CF59C01AD012C193D094E095F09EA
:10300000E9F02F962FAF2F972C963FAF2C972D9648
:103010004FAF2D972E965FAF2E970E9426242F96A6
:103020002FAD2F972C963FAD2C972D964FAD2D970A
:103030002E965FAD2E970E944A2403C060E070E098
:10304000CB01C60ED71EE81EF91E60914201709199
:103050004301CB01770FAA0BBB0BBC01CD016C0D5B
:103060007D1D8E1D9F1D0E94212260938103709300
:103070008203809383039093840381E08093800391
:1030800002C010928003609181037091820380914D
:103090008303909184030E94E9218B0160387105BC
:1030A00014F00FE710E017FF02C000E010E01093EB
:1030B0007D0300937C03C801880F991F90938C03B4
:1030C00080938B030E94C510F0905A03FF2041F0BB
:1030D000C80153E0880F991F5A95E1F70E94E70352
:1030E00080917E0390917F0308171907C1F0F110BA
:1030F00016C0F0904101109140014F2D602F812F9B
:103100000E94E0054F2D602F812F0E94D7058091EE
:103110007C0390917D0390937F0380937E030E94B4
:10312000FB02609378037093790380937A03909302
:103130007B0320914401309145014091460150911B
:103140004701609185037091860380918703909178
:1031500088030E9406216B017C012BED3FE049ECC6
:1031600050E40E94D12287FF09C0C0928503D0920B
:103170008603E0928703F092880308C010928503CB
:10318000109286031092870310928803809159034E
:10319000882309F4BECA80915E03882309F4B9CA62
:1031A00080915803882321F080915703882351F0A0
:1031B00080915603882309F4ACCA80915703882371
:1031C00009F4A7CA0091540310915503C8018E5306
:1031D0009E4F0E94710387FD8FE780934001C801D5
:1031E0008D539E4F0E947103882321F0813118F086
:1031F00080E101C081E0809341018BCA80915E0330
:10320000882309F446C08091A8019091A9010296F3
:103210009093A5018093A4018091A6019091A701AC
:10322000880F991F02969093A3018093A201809129
:10323000AC019091AD010296092E000CAA0BBB0BBC
:1032400045E1880F991FAA1FBB1F4A95D1F781300E
:103250009105A10541E0B40748F080939E01909349
:103260009F01A093A001B093A10108C010929E01FC
:1032700010929F011092A0011092A1018091AA01C9
:103280009091AB01880F991F029690939D018093B6
:103290009C016EEB71E027967FAF6EAF27978DE8AC
:1032A00093E099AF88AFA5EEB3E0BFABAEAB91ECC6
:1032B000292E93E0392EE1EDF3E0FDABECAB25EDEB
:1032C00033E03DA72CA74DE953E05DAF4CAF61EB78
:1032D00073E07BAF6AAF89EE93E09BA78AA7ADEE60
:1032E000B3E0BBABAAAB812C912C2796EEADFFAD22
:1032F0002797819191912796FFAFEEAF2797813065
:1033000092405CF480915D0390E0082C02C095959A
:1033100087950A94E2F780FF05C0E1E0AAA9BBA95E
:10332000EC9303C0AAA9BBA91C92EAA9FBA9F0814E
:10333000FAA3FF23D1F0AAA5BBA58C91811115C0DA
:10334000CC24C394EEA9FFA9C0820E94FB02ACA5C5
:10335000BDA56D937D938D939C931397ECA9FDA9C7
:103360001082AAA5BBA5CC921EC0EAA5FBA58081B0
:103370008823C9F0FAA1F11116C0AAA5BBA51C9219
:103380000E94FB02ECA5FDA5608371838283938379
:10339000F10180819181A281B381EAADFBAD80838F
:1033A0009183A283B383AEA9BFA98C91882309F42A
:1033B000D9C1B090A501A090A4011B2D110F110B34
:1033C000C12ED12EE12EF12E012F20E030E040E081
:1033D00050E860E070E080E090E00E940A202896CB
:1033E0002FAF289729963FAF29972A964FAF2A9754
:1033F0002B965FAF2B972EA73EAF4FAF21965FAFB7
:1034000021972093990330939A0340939B03509301
:103410009C03B090A301A090A2011B2D110F110BD2
:10342000C12ED12EE12EF12E012F20E030E040E020
:1034300050E860E070E080E090E00E940A20229670
:103440002FAF229723963FAF239724964FAF249711
:1034500025965FAF2597209395033093960340936D
:10346000970350939803B0909D01A0909C011B2D51
:10347000110F110BC12ED12EE12EF12E012F20E0C4
:1034800030E040E050E860E070E080E090E00E94D2
:103490000A2079018A0120939103F09292034093CC
:1034A0009303109394030E94FB022B013C01809133
:1034B000AD039091AE03A091AF03B091B00384151A
:1034C0009505A605B70508F04DC14092AD03509291
:1034D000AE036092AF037092B003ECA5FDA58081AE
:1034E0009181A281B381A3019201281B390B4A0B60
:1034F0005B0BACADBDAD2D933D934D935C9313979A
:10350000BAA1BB2309F4AAC0ECA9FDA9808181114D
:1035100068C06EA57EAD8FAD21969FAD21970E94AC
:10352000DE1F6EA77FA788AB99ABAB01BC019A01E8
:10353000AB0160E070E0CB012AA33BA34CA35DA3E9
:103540006EA37FA388A799A720E030E040E050E871
:1035500060E070E080E090E02896AFAC2897299674
:10356000BFAC29972A96CFAC2A972B96DFAC2B9726
:10357000E12CF12C00E010E00E94DF2059016A01EB
:103580007B018C012AA13BA14CA15DA160E070E010
:1035900080E090E00E94E82009F05CF46EA57FA531
:1035A00088A999A9D1016D937D938D939C931397CD
:1035B0008DC0C12CD12CE12C80E8F82ED101CD9208
:1035C000DD92ED92FC921397CC24C394ECA9FDA953
:1035D000C082ACA5BDA54D925D926D927C92139771
:1035E00075C0C0909E01D0909F01E090A001F09026
:1035F000A101F10180819181A281B3818C159D058A
:10360000AE05BF0509F462C022966FAD22972396DE
:103610007FAD239724968FAD249725969FAD259750
:103620000E94DE1F20E030E040E050E8261B370B10
:10363000480B590B20833183428353832C153D055E
:103640004E055F0508F042C021EC33E02B30310518
:10365000E8F1C082D182E282F38238C0B701C801AA
:103660000E94DE1FEAADFBAD008111812281338112
:1036700068017901C61AD70AE80AF90A2BE0C216CE
:10368000D104E10420E8F20630F4F101C082D182D5
:10369000E282F3821BC0D1011D921D921D921C92E9
:1036A0001397EEA9FFA9108281E090E0A0E0B0E0BE
:1036B000082C04C0880F991FAA1FBB1F0A94D2F7B9
:1036C00080959091720389238093720380915C03AB
:1036D0008823D9F08091CD039091CE03A091CF03A0
:1036E000B091D00305E1B695A795979587950A9572
:1036F000D1F78115F4E09F07A105B10520F08FEF08
:1037000093E0A0E0B0E00E94E703D101CD90DD900E
:10371000ED90FC90CF2CDD24EE24FF24E8ADF9AD34
:1037200080818C15F9F08C2D90E0880F991F909373
:103730008C0380938B030E94C510F401E458FE4F64
:10374000148DF401E45AFE4F048D402F6C2D812F0F
:103750000E94E005402F6C2D812F0E94D705A8AD57
:10376000B9ADCC92BFEF8B1A9B0AE8ADF9AD31969B
:10377000F9AFE8AF2EA93FA92F5F3F4F3FAB2EAB6C
:1037800034E0230E311C4CA95DA94F5F5F4F5DAB48
:103790004CAB6CA57DA56C5F7F4F7DA76CA78CADF6
:1037A0009DAD04969DAF8CAFAAADBBAD1496BBAFDB
:1037B000AAAFEAA5FBA53196FBA7EAA72AA93BA9D0
:1037C0002F5F3F4F3BAB2AAB34E08316910409F0E7
:1037D0008CCD0C9491138091730381110C949713E9
:1037E0000E94FB0200916E0310916F032091700301
:1037F00030917103DC01CB01801B910BA20BB30B49
:1038000085369105A105B10510F40C9497138091AC
:103810006D03882311F40C949713589810926D033C
:103820000C94971381E08093570384EF91E0909379
:10383000550380935403809156030C94771380E0D2
:103840000E94041010927403109273031092530399
:10385000109277030C947E1380915E03882321F0ED
:1038600081E08093730303C081E08093740381E05F
:10387000809377030C94831380918C0690918D062E
:103880008039910529F480918F06882309F4ADC110
:1038900080918C0690918D06009789F09C012058AC
:1038A00031092136310508F0A7C1209183063091F6
:1038B0008B06321709F4A0C1222309F49DC110E040
:1038C0001EC0813D91050CF4EDC1803E910509F0CB
:1038D000FAC1E0916806F0916906309779F060913D
:1038E0008F066F7720E8629FB001112480918E06C9
:1038F0008F77682B705280918B06099511E040916B
:103900008006342F317040FFDCC0842F8E7F09F495
:10391000D8C080918C0690918D06BC0160587109C9
:103920006136710518F520918B0650918306251795
:1039300019F031E0511130E0469550E04230510528
:1039400041F04330510549F04130510509F0B9C00B
:1039500006C0332309F4B5C002C03111B2C0409192
:103960008F0660918E060E946210ABC0FC01E05F82
:10397000F109E031F10508F0A4C0EA5AFF4F0C94B8
:103980000220BC0181E197E00E9451039AC0E090BF
:103990008F06F12CFE2CEE2480918E06E82A41E859
:1039A000E416F10418F050E8E52EF12CC12CD12CCE
:1039B000CE14DF0409F485C080911107909112079D
:1039C000DC01ED91FC91D601A45AB94F0190F08130
:1039D000E02DD4966C910995BFEFCB1ADB0AE8CFA6
:1039E00000918E068091110790911207DC01ED91F4
:1039F000FC910190F081E02D63EF09950F77602F26
:103A000070E080911107909112070E94780959C0C7
:103A1000E0908F06B0E8EB9E7001112480918E0635
:103A2000E82A8091110790911207DC01ED91FC9139
:103A30000190F081E02D62EF09958091110790913E
:103A40001207DC01ED91FC91B7016F7777270190A8
:103A5000F081E02D09958091110790911207DC010A
:103A6000ED91FC91B701660F672F661F770B71957B
:103A70006F7777270190F081E02D22C080918E062C
:103A80008770B0E18B9FC001112400918F060F70E9
:103A9000082B8091110790911207DC01ED91FC91A8
:103AA0000190F081E02D61EF0995809111079091CF
:103AB0001207DC01ED91FC910190F081E02D602F67
:103AC0000995112311F40C949C1380918C0690910C
:103AD0008D06803B910509F452C014F5803891059C
:103AE000B1F18039910511F00C949C1340918B0633
:103AF00060918F0680918E060E94CC0540918B06C6
:103B000060918F0680918E060E94CC0540918F06B1
:103B100060918B0680918E060E94EC030C949C139E
:103B2000803E910509F457C0803F910511F00C9437
:103B30009C13A0E9B6E0EFE5F3E08D91819323E0DB
:103B4000ED36F207D1F70E9451050C949C13409179
:103B50008B0660918F0680918E060E94C105409170
:103B60008B0660918F0680918E060E94B60560914B
:103B70008B0680918E060E94BE030C949C1340918C
:103B80008B0660918F0680918E060E94E005409121
:103B90008B0660918F0680918E060E94D7058091DA
:103BA0008F0690918E069D3031F438E0839FC001DE
:103BB00011240E94E70380918F0690918E069D301C
:103BC00011F00C949C1348E0849FC00111240E94C2
:103BD000E7030C949C1340918B0660918F068091B3
:103BE0008E060E9433040C949C1380E890E090931E
:103BF0008D0680938C064CCE813F9105C1F4E091F7
:103C00006C06F0916D060CC08B3F91050CF0ACC0BA
:103C1000833F910509F089C0E0917006F09171062B
:103C2000309709F46BCE80918E06099567CE823F5E
:103C300091050CF064C0803B9105C1F4E0916206EF
:103C4000F091630608C08038910509F057CEE091E5
:103C50005C06F0915D06309709F450CE40918F06D6
:103C600060918E0680918B06099548CE813B910527
:103C700084F48039910529F4E0915E06F0915F06A5
:103C8000EACF803A9105F9F6E0916006F09161067D
:103C9000E2CF803D910509F014CEE0916606F091E7
:103CA000670608C0803C910509F028CEE0916406C3
:103CB000F0916506309709F421CE60918E068091CF
:103CC0008B0609951BCE803F910509F017CEE09138
:103CD0006A06F0916B06309709F410CE60918F065A
:103CE00070E0762F662780918E06682B613871050B
:103CF00010F060E870E080E996E00995FFCD8A3F1A
:103D0000910509F081CFE0917606F091770608C021
:103D1000883F910509F0F2CDE0917406F0917506A7
:103D2000309709F4EBCD0995E9CD833F9105A4F4D3
:103D3000E0916E06F0916F06309709F4DFCD809127
:103D40008F068F7730E8839FC001112420918E0663
:103D50002F77822B0995D2CD863F9105C9F6E09148
:103D60007206F0917306DCCF8C3F910529F4E09147
:103D70007A06F0917B06D4CF8C3F91052CF4E0912C
:103D80007806F0917906CCCF8E3F910529F4E09129
:103D90007C06F0917D06C4CF8F3F910509F0AECD32
:103DA000E0917E06F0917F06BBCF1092C205109283
:103DB000C10588EE93E0A0E0B0E08093C305909346
:103DC000C405A093C505B093C60521E233E0309346
:103DD000C0052093BF052DEC30E03093CC05209337
:103DE000CB052CEC30E03093CE052093CD0528ECAC
:103DF00030E03093D0052093CF0529EC30E03093AC
:103E0000D2052093D1052AEC30E03093D4052093DD
:103E1000D3052EEC30E03093D6052093D5051092D3
:103E2000D8051092D9051092DA051092DB05109290
:103E30006605109265058093670590936805A093C9
:103E40006905B0936A0581E393E0909364058093DC
:103E500063058FEF9FEF9093700580936F0582E06D
:103E60008093B7058093B8058DEB95E09093BA05E4
:103E70008093B9051092BC051092BB0581E493E0D4
:103E80009093B4058093B30580E88093BD0581E8E5
:103E90008093BE050E94090DFC0121818091B70528
:103EA00090E0820F911D08970CF44FC08FEB95E0C6
:103EB000909312078093110710925D0610925C0692
:103EC00010925F0610925E061092610610926006D4
:103ED00010926306109262061092650610926406B4
:103EE0001092670610926606109269061092680694
:103EF00010926B0610926A0610926D0610926C0674
:103F000010926F0610926E06109271061092700653
:103F10001092730610927206109275061092740633
:103F20001092770610927606109279061092780613
:103F300010927B0610927A0610927D0610927C06F3
:103F400010927F0610927E060895A281B381109789
:103F500029F483EB95E0938382830EC018968D91AC
:103F60009C911997009711F0DC01F8CF83EB95E055
:103F700019969C938E93189780818093B5058181C3
:103F80008093B60590818091B805890F808380E089
:103F90009091B705891708F089CFA091B905B09124
:103FA000BA05A80FB11D9C91A181B0E0AE5EBC4FD7
:103FB0009C9391819F5F91838F5FEACFDB018F9309
:103FC0009F930E946924BF91AF91A29F800D911D84
:103FD000A39F900DB29F900D1124089597FB072E7B
:103FE00016F4009407D077FD09D00E94F12007FC59
:103FF00005D03EF4909581959F4F089570956195F9
:104000007F4F0895EE0FFF1F0590F491E02D099466
:10401000689401C0E894F92FF12B12F00C943C2025
:10402000A0E0B0E0E6E1F0E20C94AE20092E0594A9
:1040300022F40E949820112392F4F0E80F26FFEF5B
:10404000E094F09400951095B094C094D094A1940D
:10405000BF0ACF0ADF0AEF0AFF0A0F0B1F0B0E94ED
:10406000472007FC0E949820CDB7DEB7ECE00C9407
:10407000CA20689401C0E8948F929F92CF93DF93F7
:104080000E944720DF91CF919F908F9008958824C0
:104090009924F401E401B0E49F93AA279A158B04B4
:1040A0009C04ED05FE05CF05D007A10798F4AD2FC0
:1040B000DC2FCF2FFE2FE92D982C892E982F872FBC
:1040C000762F652F542F432F322F2227B85031F7E8
:1040D000BF9127C01B2EBF91BB27220F331F441F48
:1040E000551F661F771F881F991F881C991CEE1F7C
:1040F000FF1FCC1FDD1FAA1FBB1F8A149B04EC05EA
:10410000FD05CE05DF05A007B10748F08A189B081A
:10411000EC09FD09CE09DF09A00BB10B21601A944F
:10412000E1F62EF49401AF01BE01CD01000C08951B
:104130006095709580959095309540955095219516
:104140003F4F4F4F5F4F6F4F7F4F8F4F9F4F0895A0
:104150002F923F924F925F926F927F928F929F9297
:10416000AF92BF92CF92DF92EF92FF920F931F9385
:10417000CF93DF93CDB7DEB7CA1BDB0B0FB6F89436
:10418000DEBF0FBECDBF09942A88398848885F8476
:104190006E847D848C849B84AA84B984C884DF80E7
:1041A000EE80FD800C811B81AA81B981CE0FD11DCB
:1041B0000FB6F894DEBF0FBECDBFED0108952A19EA
:1041C0003B094C095D096E097F09800B910B08952D
:1041D0002A153B054C055D056E057F058007910797
:1041E0000895AA1BBB1B51E107C0AA1FBB1FA6173E
:1041F000B70710F0A61BB70B881F991F5A95A9F790
:1042000080959095BC01CD0108955058BB27AA27F1
:104210000E941D210C9497220E94892238F00E944E
:10422000902220F039F49F3F19F426F40C94862252
:104230000EF4E095E7FB0C948022E92F0E94A8225F
:1042400058F3BA17620773078407950720F079F4CB
:10425000A6F50C94CA220EF4E0950B2EBA2FA02DD1
:104260000B01B90190010C01CA01A0011124FF2723
:10427000591B99F0593F50F4503E68F11A16F0401E
:10428000A22F232F342F4427585FF3CF469537951D
:104290002795A795F0405395C9F77EF41F16BA0BE2
:1042A000620B730B840BBAF09150A1F0FF0FBB1F90
:1042B000661F771F881FC2F70EC0BA0F621F731FD9
:1042C000841F48F4879577956795B795F7959E3F36
:1042D00008F0B0CF9395880F08F09927EE0F9795C7
:1042E000879508950E945C2208F481E008950E9459
:1042F0008B210C9497220E94902258F00E948922D0
:1043000040F029F45F3F29F00C94802251110C9465
:10431000CB220C9486220E94A82268F39923B1F341
:10432000552391F3951B550BBB27AA2762177307DB
:10433000840738F09F5F5F4F220F331F441FAA1F6F
:10434000A9F335D00E2E3AF0E0E832D0915050402B
:10435000E695001CCAF72BD0FE2F29D0660F771FD9
:10436000881FBB1F261737074807AB07B0E809F0BF
:10437000BB0B802DBF01FF2793585F4F3AF09E3F44
:10438000510578F00C9480220C94CB225F3FE4F32B
:10439000983ED4F3869577956795B795F7959F5F87
:1043A000C9F7880F911D9695879597F90895E1E0D3
:1043B000660F771F881FBB1F621773078407BA0732
:1043C00020F0621B730B840BBA0BEE1F88F7E0958D
:1043D00008950E94F0216894B1110C94CB220895A5
:1043E0000E94B02288F09F5798F0B92F9927B751B3
:1043F000B0F0E1F0660F771F881F991F1AF0BA9589
:10440000C9F714C0B13091F00E94CA22B1E00895FA
:104410000C94CA22672F782F8827B85F39F0B93FEC
:10442000CCF3869577956795B395D9F73EF490953B
:104430008095709561957F4F8F4F9F4F0895E894B9
:1044400009C097FB3EF490958095709561957F4FDC
:104450008F4F9F4F9923A9F0F92F96E9BB2793958A
:10446000F695879577956795B795F111F8CFFAF49A
:10447000BB0F11F460FF1BC06F5F7F4F8F4F9F4FCB
:1044800016C0882311F096E911C0772321F09EE829
:10449000872F762F05C0662371F096E8862F70E08F
:1044A00060E02AF09A95660F771F881FDAF7880F69
:1044B0009695879597F90895990F0008550FAA0BBF
:1044C000E0E8FEEF16161706E807F907C0F0121627
:1044D0001306E407F50798F0621B730B840B950B2A
:1044E00039F40A2661F0232B242B252B21F408957F
:1044F0000A2609F4A140A6958FEF811D811D08951C
:1045000097F99F6780E870E060E008959FEF80EC86
:10451000089500240A941616170618060906089529
:1045200000240A9412161306140605060895092E8F
:104530000394000C11F4882352F0BB0F40F4BF2BFE
:1045400011F460FF04C06F5F7F4F8F4F9F4F08953E
:1045500057FD9058440F551F59F05F3F71F0479534
:10456000880F97FB991F61F09F3F79F08795089519
:10457000121613061406551FF2CF4695F1DF08C038
:10458000161617061806991FF1CF86957105610555
:1045900008940895E894BB2766277727CB0197F9FD
:1045A00008950E945C2208F48FEF08950E94E9228A
:1045B0000C9497220E94892238F00E94902220F0C9
:1045C000952311F00C9480220C94862211240C94D3
:1045D000CB220E94A82270F3959FC1F3950F50E063
:1045E000551F629FF001729FBB27F00DB11D639FA5
:1045F000AA27F00DB11DAA1F649F6627B00DA11D4B
:10460000661F829F2227B00DA11D621F739FB00DF0
:10461000A11D621F839FA00D611D221F749F332760
:10462000A00D611D231F849F600D211D822F762FF9
:104630006A2F11249F5750409AF0F1F088234AF0D6
:10464000EE0FFF1FBB1F661F771F881F9150504042
:10465000A9F79E3F510580F00C9480220C94CB2248
:104660005F3FE4F3983ED4F3869577956795B795C9
:10467000F795E7959F5FC1F7FE2B880F911D9695E3
:10468000879597F908959F930E944D230F9007FCFB
:10469000EE5F0C9476230C9486220E94B022D8F30D
:1046A000E894E0E0BB279F57F0F02AED3FE049ECAB
:1046B00006C0EE0FBB0F661F771F881F28F0B23AA7
:1046C00062077307840728F0B25A620B730B840BDE
:1046D000E3959A9572F7803830F49A95BB0F661F70
:1046E000771F881FD2F790480C948C23EF93E0FF3C
:1046F00007C0A2EA2AED3FE049EC5FEB0E941D21D2
:104700000E9497220F90039401FC9058E8E0F1E09A
:104710000C9498239F3F31F0915020F48795779522
:104720006795B795880F911D9695879597F9089588
:104730009F938F937F936F93FF93EF939B01AC01B4
:104740000E94D622EF91FF910E94AC232F913F91BE
:104750004F915F910C94D622DF93CF931F930F93C9
:10476000FF92EF92DF927B018C01689406C0DA2EF3
:10477000EF010E94E922FE01E894A591259135916F
:1047800045915591A6F3EF010E941D21FE0197016D
:10479000A801DA9469F7DF90EF90FF900F911F91D5
:1047A000CF91DF91089581E090E0F8940C94AD24CE
:1047B0008F929F92AF92BF92CF92DF92EF92FF9231
:1047C000CF93DF93EC01688179818A819B816115A8
:1047D00071058105910521F464E279ED8BE597E09F
:1047E0002DE133EF41E050E00E944A2449015A0193
:1047F0009B01AC01A7EAB1E40E9469246B017C0132
:10480000ACEEB4EFA50194010E947724DC01CB014A
:104810008C0D9D1DAE1DBF1DB7FF03C00197A109E3
:10482000B04888839983AA83BB83BC01CD019F775D
:10483000DF91CF91FF90EF90DF90CF90BF90AF903E
:104840009F908F9008950E94D823089589E193E066
:104850000E94D82308956093190370931A038093DC
:104860001B0390931C030895F999FECF92BD81BD5F
:10487000F89A992780B50895262FF999FECF1FBA87
:1048800092BD81BD20BD0FB6F894FA9AF99A0FBE79
:1048900001960895052E97FB1EF400940E94612452
:1048A00057FD07D00E947C2407FC03D04EF40C94E3
:1048B000612450954095309521953F4F4F4F5F4F64
:1048C000089590958095709561957F4F8F4F9F4F7C
:1048D00008950E949E24A59F900DB49F900DA49FC3
:1048E000800D911D11240895B7FF0C9469240E9436
:1048F0006924821B930B0895A1E21A2EAA1BBB1BED
:10490000FD010DC0AA1FBB1FEE1FFF1FA217B3079B
:10491000E407F50720F0A21BB30BE40BF50B661FB1
:10492000771F881F991F1A9469F760957095809575
:1049300090959B01AC01BD01CF010895A29FB001EC
:10494000B39FC001A39F700D811D1124911DB29FC3
:0E495000700D811D1124911D0895F894FFCF64
:10495E009DFF9DFF9DFF9DFF9DFF9DFF9DFF9DFF69
:10496E009DFF9DFF9DFF9DFF9DFF9DFF9DFF9DFF59
:10497E009DFF9DFF9DFF9DFF9DFF9DFF9DFF9DFF49
:10498E009DFF9DFF9DFF9DFF9DFF9DFF9DFF9DFF39
:10499E00030140000AD7233C64004000000080421F
:1049AE0000000000000080420AD7233C01010101F3
:1049BE0001010101010101010101010101010101D9
:1049CE0001010101010101010101010101020304C3
:1049DE0028292A2E090A0B0C272624251112131416
:1049EE0015161718191A1B1C64656667C800000097
:1049FE000040640064009DFF9DFF9DFF9DFF9DFF95
:104A0E009DFF9DFF9DFF9DFF9DFF9DFF9DFF9DFFB8
:104A1E009DFF9DFF9DFF9DFF9DFF9DFF9DFF9DFFA8
:104A2E009DFF9DFF9DFF9DFF9DFF9DFF9DFF9DFF98
:104A3E009DFF9DFF9DFF7F7F7F7F7F7F7F7F7F7F9E
:104A4E007F7F7F7F7F7F7F7F7F7F7F7F7F7F7F7F68
:104A5E007F7F7F7F7F7F40404040404040404040CE
:104A6E004040404040404040404040404040404038
:104A7E004040404040407F7F7F7F7F7F7F7F7F7FB2
:104A8E007F7F7F7F7F7F7F7F7F7F7F7F7F7F7F7F28
:104A9E007F7F7F7F7F7F7F7F7F7F7F7F7F7F7F7F18
:104AAE007F7F404040407F7F7F7F7F7F7F7F7F7F04
:104ABE007F7F7F7F7F7F00000000000000000000EE
:104ACE0000003F3F3F3F00000000000000000000DC
:104ADE0000000000000000000000010101010000C4
:104AEE0000000101010100000000000000000000B4
:104AFE0000000000000000000F00210033004700FE
:104B0E005B006E0081009500A700BA00CD00DF00AB
:104B1E00F20006011A012E013D01510164017601D8
:104B2E0089019C01AF01C201D501E801FB010E0212
:104B3E002102340247025A026D0280029402A70239
:104B4E00B902CB02DE02F302060319032B033F0365
:104B5E00530367030000FFFFFFFF00E100000000AA
:104B6E00000000C180810000000100000000000074
:104B7E00007B0AF709440A220A360AC20A0000001C
:104B8E0000EE0A610CF90CA60CC80C910B0000008B
:0C4B9E00009701AB019401A0010D0A007A
:2070000055C000006EC000006CC000006AC0000068C0000066C0000064C0000062C0000043
:2070200060C000005EC00000F2C400005AC0000058C0000056C0000054C0000052C00000EE
:2070400050C0000078C000004CC000004AC0000048C0000046C0000044C0000042C00000BE
:2070600040C000003EC000003CC000003AC0000038C0000036C0000034C0000032C0000048
:2070800030C000002EC000002CC000002AC0000028C0000026C0000024C0000022C00000A8
:2070A00020C000001EC000001CC0000011241FBECFEFDAE0DEBFCDBF11E0A0E0B1E0E2E3BC
:2070C000FFE702C005900D92A83AB107D9F711E0A8EAB1E001C01D92AE3BB107E1F78FD30B
:2070E00026C78ECFF89410926F0010928100109285001092840081E085BF15BE47985D9AEB
:20710000289A0C94000008952091B2013091B3012F5F3F4F3093B3012093B201932F37FFA6
:2071200003C08EEF831B982F990F921710F447980895479A08951F920F920FB60F9211246E
:207140002F938F939F93EF93FF9310928500109284008091A8019091A901009741F00197D3
:207160009093A9018093A801892B09F45D9A8091AA019091AB01009741F001979093AB0126
:207180008093AA01892B09F4289AE0E0F0E0859194918F5F9F4F49F08091AC019091AD0151
:2071A00001969093AD018093AC01FF91EF919F918F912F910F900FBE0F901F90189584E0BC
:2071C0008093E9000DC08091E8008B778093E80003C08EB3882351F08091E80082FFF9CFBE
:2071E0008091E80085FFEFCF8091F1000895982F83E08093E9008091E80085FD0DC0809136
:20720000E8008E778093E80003C08EB3882369F08091E80080FFF9CF9093F1005D9884E6CB
:2072200090E09093A9018093A80108954F925F926F927F928F929F92AF92BF92CF92DF921E
:20724000EF92FF920F931F93CF93DF9384E08093E9008091E80082FF57C2289884E690E067
:207260009093AB018093AA01AADF182F853481F48CE49DE19093AD018093AC0107B600FC4B
:20728000FDCFF999FECF81E180935700E89503C0843519F494DF8DE00DC28C34E1F38035F9
:2072A000D1F3843721F484E4A2DF80E003C2813611F489E5FFC18134B1F481DF182F7FDFE3
:2072C00090E0880F991FAA2797FDA095BA2F312F330F20E0442737FD4095542F822B932B68
:2072E000A42BB52BB8C1803711F483E5E3C1833549F4C0E0D1E089917ADF21E0C730D20714
:20730000D1F7D9C1863521F481E371DF80E3D2C1833731F487E86BDF85E969DF8EE1CAC149
:207320008536B9F4E0E0F0E093E085E090935700E89507B600FCFDCF80935700E89507B65D
:2073400000FCFDCFE058FF4FA0E7E030FA0771F7A2CF823739F4E1E0F0E089E08093570024
:207360008491A8C1863439F4E0E0F0E089E08093570084919FC18E3439F4E3E0F0E089E0E5
:2073800080935700849196C1813539F4E2E0F0E089E08093570084918DC1823631F489E521
:2073A00026DF80E024DF80E885C1823419F0873609F0E5C01092AD011092AC0100DF082FE8
:2073C000FEDEF82EFCDE682E8554823008F071C1902F80E0CF2DD0E0C82BD92B10926F00B3
:2073E000173609F04BC081E180935700E895DD24CC24C3943FC0E090AE01F090AF010091CC
:20740000B0011091B101B6E46B16D9F4ED2DF0E0EE29FF29E4918E2FEADEDD2081F082E08D
:2074200090E0A0E0B0E0E80EF91E0A1F1B1FE092AE01F092AF010093B0011093B101DC2470
:2074400018C0D801C701B695A7959795879559D5CEDE82E090E0A0E0B0E0E80EF91E0A1FF2
:207460001B1FE092AE01F092AF010093B0011093B1012197209709F0BECF7DC08090AE01F5
:207480009090AF01A090B001B090B10196E4691609F05DC083E0F40180935700E89507B63E
:2074A00000FCFDCF54C0F6E46F1661F5772031F1E090AE01F090AF010091B0011091B1019E
:2074C0007EDED82ECC24852D90E08C299D29F7010C0140925700E895112482E090E0A0E08B
:2074E000B0E0E80EF91E0A1F1B1FE092AE01F092AF010093B0011093B10102C060DE582E1A
:20750000742423C0E090AE01F090AF010091B0011091B10116950795F794E79450DE682FFA
:20752000C701F7D48091AE019091AF01A091B001B091B1010296A11DB11D8093AE01909349
:20754000AF01A093B001B093B101219704C05524772444244394209709F0A5CF96E46916B6
:2075600041F485E0F40180935700E89507B600FCFDCF8DE03CDE82E080936F009CC0833492
:2075800071F40091AE011091AF0119DE90E021E0F8010C0120935700E89511247CCE8336C8
:2075A00019F5E090AE01F090AF010091B0011091B10105DEF701E16090E021E00C0120938C
:2075C0005700E895112482E090E0A0E0B0E0E80EF91E0A1F1B1FE092AE01F092AF0100936A
:2075E000B0011093B10157CE8D3661F4E091AE01F091AF0185E080935700E89507B600FCF2
:20760000FDCF49CE823551F4E091AE01F091AF0105911491812FEBDD802F4CC0843421F5FE
:20762000E090AE01F090AF010091B0011091B10116950795F794E794C2DD682FC70169D4DE
:207640008091AE019091AF01A091B001B091B1010296A11DB11D8093AE019093AF01A093D8
:20766000B001B093B10117CE843609F5E090AE01F090AF010091B0011091B101D801C70142
:20768000B695A795979587953CD4B1DD82E090E0A0E0B0E0E80EF91E0A1F1B1FE092AE010A
:2076A000F092AF010093B0011093B10104C08B3111F08FE39CDD83E08093E9009091E8002B
:2076C0008091E8008E778093E80095FF04C010C08EB38823C9F08091E80080FFF9CF809193
:2076E000E8008E778093E80003C08EB3882361F08091E80080FFF9CF84E08093E9008091F1
:20770000E8008B778093E800DF91CF911F910F91FF90EF90DF90CF90BF90AF909F908F90AC
:207720007F906F905F904F9008959091B601892F8F77813249F58091B7018032A1F081328A
:2077400019F5913A09F58091E800877F8093E8008DE091E067E070E00BD28091E8008B770B
:207760008093E8000895913279F48091E800877F8093E8008DE091E067E070E05DD2809192
:20778000E8008E778093E800089582E061EC42E0B5D083E061E842E1B1D084E060E842E1EF
:2077A000ADC084B7877F84BF88E10FB6F89480936000109260000FBE20E880E090E00FB63F
:2077C000F89420936100809361000FBE81E085BF92E095BF3F9A209A559AE1E6F0E02083A1
:2077E000108247985D9A289A109289008AEF8093880090936F0083E080938100F0C0409116
:20780000000850910108109201081092000894B714BE88E10FB6F8948093600010926000D5
:207820000FBE292F30E0F901E270F07091FD18C090FF05C0859194918F5F9F4F81F423FFFF
:207840000FC08091090190910A014817590741F0E0E0F0E0859194918F5F9F4F09F042DC64
:20786000A0DF78941092AD011092AC010CC0DEDC36D38091AC019091AD0181549F4110F00D
:207880001092140141DC80911401882381F78091E00081608093E00025DC80E090E0089598
:2078A000FA01923049F0933061F09130F9F485E191E022E130E01EC087E291E02EE330E04D
:2078C00019C0882329F485E691E024E030E012C0813029F489E691E022E230E00BC0823006
:2078E00029F48DE891E028E130E004C080E090E020E030E091838083C90108958093E9004E
:207900008091EB0081608093EB001092ED006093EC004093ED008091EE00881F8827881F62
:2079200008958091B60188238CF403C08EB38823B1F08091E80082FFF9CF8091E8008B772A
:207940008093E80008958EB3882349F08091E80080FFF9CF8091E8008E778093E800089594
:20796000EF92FF920F931F9345D04CD008ED10E0F80180818F77808380818068808380819B
:207980008F7D808319BC1EBA1092B40180EEE82EF12CF70180818B7F8083F8018081816052
:2079A000808380E060E042E0A9DFE1EEF0E080818E7F8083E2EEF0E0808181608083808144
:2079C00088608083F70180818E7F8083F8018081806180831F910F91FF90EF900895E7ED06
:2079E000F0E08081816080838AE482BF81E08093B501B6CFE8EDF0E080818E7F808310921C
:207A0000E20008951092DA001092E10008951F920F920FB60F9211242F933F934F935F93F6
:207A20006F937F938F939F93AF93BF93EF93FF938091DA0080FF1BC08091D80080FF17C0B2
:207A40008091DA008E7F8093DA008091D90080FF0BC080E189BD82E189BD09B400FEFDCF36
:207A600081E08EBB3BD203C019BC1EBA37D28091E10080FF17C08091E20080FF13C0809138
:207A8000E2008E7F8093E2008091E20080618093E2008091D80080628093D80019BC85E049
:207AA0008EBB1CD28091E10084FF2CC08091E20084FF28C080E189BD82E189BD09B400FEC5
:207AC000FDCF8091D8008F7D8093D8008091E1008F7E8093E1008091E2008F7E8093E20012
:207AE0008091E20081608093E2008091B401882331F48091E30087FD02C081E001C084E067
:207B00008EBBECD18091E10083FF21C08091E20083FF1DC08091E100877F8093E10082E06A
:207B20008EBB1092B4018091E1008E7F8093E1008091E2008E7F8093E2008091E2008061E9
:207B40008093E20080E060E042E0D8DEC7D1FF91EF91BF91AF919F918F917F916F915F9130
:207B60004F913F912F910F900FBE0F901F9018959C014091BC015091BD014617570718F49D
:207B8000F90190E044C06115710511F0AB01F8CF8091E8008E778093E80040E050E0F0CF0F
:207BA0008EB3882309F444C0853009F443C08091E80083FF02C081E008958091E80082FD70
:207BC00031C08091E80080FF22C08091F3009091F200782F60E0292F30E0262B372B07C07A
:207BE00081918093F100415050402F5F3F4F4115510519F02830310598F390E02830310566
:207C000009F491E08091E8008E778093E8004115510531F6992321F605C08EB3882341F075
:207C2000853041F08091E80082FFF7CF80E0089582E0089583E008959C016115710529F47C
:207C40008091E8008B778093E800F90126C08EB3882391F1853091F18091E80083FF02C06C
:207C600081E008958091E80082FFF1CF06C08091F10081936150704059F02091F300809191
:207C8000F200322F20E090E0822B932B892B79F78091E8008B778093E80061157105B9F601
:207CA00005C08EB3882341F0853041F08091E80080FFF7CF80E0089582E0089583E00895C2
:207CC0000F931F93DF93CF9300D0CDB7DEB7E6EBF1E08091F100819381E0EE3BF807C9F792
:207CE00024DD8091E80083FFE4C08091B6019091B701953009F46DC0963040F4913081F1A7
:207D0000913070F0933009F0D4C02AC0983009F4A3C0993009F4B2C0963009F0CAC07CC023
:207D2000803809F4C6C0823809F0C3C08091BA0187708093E9008091EB001092E9002091DB
:207D4000E800277F2093E80090E025E0969587952A95E1F781708093F1001092F10087C0D8
:207D6000882319F0823009F0A4C08F71823009F0A0C08091B801882331F52091BA01277097
:207D800009F497C02093E9008091EB0080FF1BC0933021F48091EB00806213C08091EB0018
:207DA00080618093EB0081E090E002C0880F991F2A95E2F78093EA001092EA008091EB00E5
:207DC00088608093EB001092E9008091E800877F51C0882309F06DC01091B8011F770FB79B
:207DE000F8948091E800877F8093E8009ADD8091E80080FFFCCF8091E3008078812B809398
:207E0000E30080688093E300112311F482E001C083E08EBB0FBF4DC08058823008F049C033
:207E20008091B8019091B9016091BA01AE014F5F5F4F36DDBC01009709F43BC08091E8008E
:207E4000877F8093E80089819A8192DE8091E8008B778093E8002DC0803859F58091E800AA
:207E6000877F8093E8008091B4018093F1008091E8008E778093E80054DD1BC08823C9F4CA
:207E80009091B8019230A8F48091E800877F8093E8009093B40145DD8091B401882331F420
:207EA0008091E30087FD02C081E001C084E08EBB6CDC8091E80083FF0AC08091EB0080624E
:207EC0008093EB008091E800877F8093E8000F900F90CF91DF911F910F91089508951F9360
:207EE0008EB3882361F01091E9001092E9008091E80083FF01C0E4DE17701093E9001F916F
:207F00000895F999FECF92BD81BDF89A992780B50895262FF999FECF1FBA92BD81BD20BDBD
:207F20000FB6F894FA9AF99A0FBE01960895F894FFCF4341544552494E4100777700080031
:207F40000000000000080112011001020000084123360001000201000109023E00020100FF
:207F600080320904000001020201000524001001042402040524060001070582030800FF0C
:207F800009040100020A000000070504021000010705830210000104030904220341007216
:207FA000006400750069006E006F0020004C0065006F006E006100720064006F0000001836
:1A7FC00003410072006400750069006E006F0020004C004C004300000000D7
:00000001FF
